{
  "_format": "hh-sol-artifact-1",
  "contractName": "PatientDataSharing",
  "sourceName": "contracts/PatientDataSharing.sol",
  "abi": [
    {
      "inputs": [
        {
          "internalType": "address",
          "name": "_doctor",
          "type": "address"
        },
        {
          "internalType": "address",
          "name": "_researcher",
          "type": "address"
        }
      ],
      "stateMutability": "nonpayable",
      "type": "constructor"
    },
    {
      "anonymous": false,
      "inputs": [
        {
          "indexed": true,
          "internalType": "address",
          "name": "patient",
          "type": "address"
        },
        {
          "indexed": true,
          "internalType": "address",
          "name": "grantedTo",
          "type": "address"
        }
      ],
      "name": "AccessGranted",
      "type": "event"
    },
    {
      "anonymous": false,
      "inputs": [
        {
          "indexed": true,
          "internalType": "address",
          "name": "patient",
          "type": "address"
        },
        {
          "indexed": true,
          "internalType": "address",
          "name": "revokedFrom",
          "type": "address"
        }
      ],
      "name": "AccessRevoked",
      "type": "event"
    },
    {
      "anonymous": false,
      "inputs": [
        {
          "indexed": true,
          "internalType": "address",
          "name": "patient",
          "type": "address"
        },
        {
          "indexed": false,
          "internalType": "string",
          "name": "cid",
          "type": "string"
        },
        {
          "indexed": false,
          "internalType": "enum PatientDataSharing.DataType",
          "name": "dataType",
          "type": "uint8"
        },
        {
          "indexed": false,
          "internalType": "string",
          "name": "description",
          "type": "string"
        }
      ],
      "name": "DataAdded",
      "type": "event"
    },
    {
      "anonymous": false,
      "inputs": [
        {
          "indexed": true,
          "internalType": "address",
          "name": "patient",
          "type": "address"
        },
        {
          "indexed": false,
          "internalType": "string",
          "name": "name",
          "type": "string"
        },
        {
          "indexed": false,
          "internalType": "uint256",
          "name": "age",
          "type": "uint256"
        }
      ],
      "name": "PatientRegistered",
      "type": "event"
    },
    {
      "inputs": [
        {
          "internalType": "string",
          "name": "_cid",
          "type": "string"
        },
        {
          "internalType": "enum PatientDataSharing.DataType",
          "name": "_dataType",
          "type": "uint8"
        },
        {
          "internalType": "string",
          "name": "_description",
          "type": "string"
        }
      ],
      "name": "addData",
      "outputs": [],
      "stateMutability": "nonpayable",
      "type": "function"
    },
    {
      "inputs": [],
      "name": "doctor",
      "outputs": [
        {
          "internalType": "address",
          "name": "",
          "type": "address"
        }
      ],
      "stateMutability": "view",
      "type": "function"
    },
    {
      "inputs": [
        {
          "internalType": "address",
          "name": "_patient",
          "type": "address"
        }
      ],
      "name": "getDataCount",
      "outputs": [
        {
          "internalType": "uint256",
          "name": "",
          "type": "uint256"
        }
      ],
      "stateMutability": "view",
      "type": "function"
    },
    {
      "inputs": [
        {
          "internalType": "address",
          "name": "_patient",
          "type": "address"
        }
      ],
      "name": "getDiagnosisDataCount",
      "outputs": [
        {
          "internalType": "uint256",
          "name": "",
          "type": "uint256"
        }
      ],
      "stateMutability": "view",
      "type": "function"
    },
    {
      "inputs": [
        {
          "internalType": "address",
          "name": "_patient",
          "type": "address"
        }
      ],
      "name": "getPatientInfo",
      "outputs": [
        {
          "internalType": "string",
          "name": "name",
          "type": "string"
        },
        {
          "internalType": "uint256",
          "name": "age",
          "type": "uint256"
        },
        {
          "internalType": "string",
          "name": "phoneNumber",
          "type": "string"
        },
        {
          "internalType": "string",
          "name": "emergencyContact",
          "type": "string"
        }
      ],
      "stateMutability": "view",
      "type": "function"
    },
    {
      "inputs": [
        {
          "internalType": "address",
          "name": "_patient",
          "type": "address"
        },
        {
          "internalType": "uint256",
          "name": "_index",
          "type": "uint256"
        }
      ],
      "name": "getRecordByIndex",
      "outputs": [
        {
          "internalType": "string",
          "name": "cid",
          "type": "string"
        },
        {
          "internalType": "enum PatientDataSharing.DataType",
          "name": "dataType",
          "type": "uint8"
        },
        {
          "internalType": "string",
          "name": "description",
          "type": "string"
        },
        {
          "internalType": "uint256",
          "name": "timestamp",
          "type": "uint256"
        },
        {
          "internalType": "bool",
          "name": "isDiagnosisData",
          "type": "bool"
        }
      ],
      "stateMutability": "view",
      "type": "function"
    },
    {
      "inputs": [],
      "name": "getRegisteredPatients",
      "outputs": [
        {
          "internalType": "address[]",
          "name": "",
          "type": "address[]"
        }
      ],
      "stateMutability": "view",
      "type": "function"
    },
    {
      "inputs": [
        {
          "internalType": "address",
          "name": "_to",
          "type": "address"
        }
      ],
      "name": "grantAccess",
      "outputs": [],
      "stateMutability": "nonpayable",
      "type": "function"
    },
    {
      "inputs": [
        {
          "internalType": "address",
          "name": "_patient",
          "type": "address"
        },
        {
          "internalType": "address",
          "name": "_accessor",
          "type": "address"
        }
      ],
      "name": "isAccessGranted",
      "outputs": [
        {
          "internalType": "bool",
          "name": "",
          "type": "bool"
        }
      ],
      "stateMutability": "view",
      "type": "function"
    },
    {
      "inputs": [
        {
          "internalType": "address",
          "name": "_patient",
          "type": "address"
        }
      ],
      "name": "isPatientRegistered",
      "outputs": [
        {
          "internalType": "bool",
          "name": "",
          "type": "bool"
        }
      ],
      "stateMutability": "view",
      "type": "function"
    },
    {
      "inputs": [
        {
          "internalType": "address",
          "name": "",
          "type": "address"
        }
      ],
      "name": "patientInfo",
      "outputs": [
        {
          "internalType": "string",
          "name": "name",
          "type": "string"
        },
        {
          "internalType": "uint256",
          "name": "age",
          "type": "uint256"
        },
        {
          "internalType": "string",
          "name": "phoneNumber",
          "type": "string"
        },
        {
          "internalType": "string",
          "name": "emergencyContact",
          "type": "string"
        },
        {
          "internalType": "bool",
          "name": "isRegistered",
          "type": "bool"
        }
      ],
      "stateMutability": "view",
      "type": "function"
    },
    {
      "inputs": [
        {
          "internalType": "address",
          "name": "_patient",
          "type": "address"
        },
        {
          "internalType": "string",
          "name": "_name",
          "type": "string"
        },
        {
          "internalType": "uint256",
          "name": "_age",
          "type": "uint256"
        },
        {
          "internalType": "string",
          "name": "_phoneNumber",
          "type": "string"
        },
        {
          "internalType": "string",
          "name": "_emergencyContact",
          "type": "string"
        }
      ],
      "name": "registerPatient",
      "outputs": [],
      "stateMutability": "nonpayable",
      "type": "function"
    },
    {
      "inputs": [
        {
          "internalType": "uint256",
          "name": "",
          "type": "uint256"
        }
      ],
      "name": "registeredPatients",
      "outputs": [
        {
          "internalType": "address",
          "name": "",
          "type": "address"
        }
      ],
      "stateMutability": "view",
      "type": "function"
    },
    {
      "inputs": [],
      "name": "researcher",
      "outputs": [
        {
          "internalType": "address",
          "name": "",
          "type": "address"
        }
      ],
      "stateMutability": "view",
      "type": "function"
    },
    {
      "inputs": [
        {
          "internalType": "address",
          "name": "_to",
          "type": "address"
        }
      ],
      "name": "revokeAccess",
      "outputs": [],
      "stateMutability": "nonpayable",
      "type": "function"
    }
  ],
  "bytecode": "0x60806040523480156200001157600080fd5b506040516200301c3803806200301c83398181016040528101906200003791906200012a565b816000806101000a81548173ffffffffffffffffffffffffffffffffffffffff021916908373ffffffffffffffffffffffffffffffffffffffff16021790555080600160006101000a81548173ffffffffffffffffffffffffffffffffffffffff021916908373ffffffffffffffffffffffffffffffffffffffff160217905550505062000171565b600080fd5b600073ffffffffffffffffffffffffffffffffffffffff82169050919050565b6000620000f282620000c5565b9050919050565b6200010481620000e5565b81146200011057600080fd5b50565b6000815190506200012481620000f9565b92915050565b60008060408385031215620001445762000143620000c0565b5b6000620001548582860162000113565b9250506020620001678582860162000113565b9150509250929050565b612e9b80620001816000396000f3fe608060405234801561001057600080fd5b50600436106100f55760003560e01c806385e6853111610097578063d73d520811610066578063d73d5208146102b3578063df83f5b9146102e3578063e68cc4a3146102ff578063e790f59f14610333576100f5565b806385e6853114610207578063952481a014610223578063bbe0f66c14610253578063c2b0ebdf14610283576100f5565b80634b426178116100d35780634b426178146101525780636142d2dc146101855780637ea7118c146101b957806380b6b1b8146101d7576100f5565b806309560056146100fa5780630ae5e739146101185780631dc0a6a514610134575b600080fd5b61010261034f565b60405161010f9190611fe6565b60405180910390f35b610132600480360381019061012d9190612048565b6103dd565b005b61013c610561565b6040516101499190612084565b60405180910390f35b61016c60048036038101906101679190612048565b610587565b60405161017c9493929190612148565b60405180910390f35b61019f600480360381019061019a9190612048565b610bea565b6040516101b09594939291906121bd565b60405180910390f35b6101c1610dc5565b6040516101ce9190612084565b60405180910390f35b6101f160048036038101906101ec9190612048565b610de9565b6040516101fe9190612225565b60405180910390f35b610221600480360381019061021c9190612048565b610e42565b005b61023d60048036038101906102389190612240565b610fc6565b60405161024a9190612225565b60405180910390f35b61026d60048036038101906102689190612048565b61110b565b60405161027a9190612280565b60405180910390f35b61029d60048036038101906102989190612048565b61115a565b6040516102aa9190612280565b60405180910390f35b6102cd60048036038101906102c891906122c7565b61136d565b6040516102da9190612084565b60405180910390f35b6102fd60048036038101906102f89190612429565b6113ac565b005b610319600480360381019061031491906124f8565b61165c565b60405161032a9594939291906125af565b60405180910390f35b61034d60048036038101906103489190612635565b611c58565b005b606060048054806020026020016040519081016040528092919081815260200182805480156103d357602002820191906000526020600020905b8160009054906101000a900473ffffffffffffffffffffffffffffffffffffffff1673ffffffffffffffffffffffffffffffffffffffff1681526020019060010190808311610389575b5050505050905090565b600260003373ffffffffffffffffffffffffffffffffffffffff1673ffffffffffffffffffffffffffffffffffffffff16815260200190815260200160002060040160009054906101000a900460ff1661046c576040517f08c379a00000000000000000000000000000000000000000000000000000000081526004016104639061270c565b60405180910390fd5b6001600360003373ffffffffffffffffffffffffffffffffffffffff1673ffffffffffffffffffffffffffffffffffffffff16815260200190815260200160002060010160008373ffffffffffffffffffffffffffffffffffffffff1673ffffffffffffffffffffffffffffffffffffffff16815260200190815260200160002060006101000a81548160ff0219169083151502179055508073ffffffffffffffffffffffffffffffffffffffff163373ffffffffffffffffffffffffffffffffffffffff167f9f520b3bfc56d06f7065d10b4683b3f57ac8895d5026cd176dee95ce1454cb8d60405160405180910390a350565b600160009054906101000a900473ffffffffffffffffffffffffffffffffffffffff1681565b60606000606080600260008673ffffffffffffffffffffffffffffffffffffffff1673ffffffffffffffffffffffffffffffffffffffff16815260200190815260200160002060040160009054906101000a900460ff1661061d576040517f08c379a000000000000000000000000000000000000000000000000000000000815260040161061490612778565b60405180910390fd5b8473ffffffffffffffffffffffffffffffffffffffff163373ffffffffffffffffffffffffffffffffffffffff1614806106a2575060008054906101000a900473ffffffffffffffffffffffffffffffffffffffff1673ffffffffffffffffffffffffffffffffffffffff163373ffffffffffffffffffffffffffffffffffffffff16145b156108f2576000600260008773ffffffffffffffffffffffffffffffffffffffff1673ffffffffffffffffffffffffffffffffffffffff1681526020019081526020016000206040518060a0016040529081600082018054610703906127c7565b80601f016020809104026020016040519081016040528092919081815260200182805461072f906127c7565b801561077c5780601f106107515761010080835404028352916020019161077c565b820191906000526020600020905b81548152906001019060200180831161075f57829003601f168201915b505050505081526020016001820154815260200160028201805461079f906127c7565b80601f01602080910402602001604051908101604052809291908181526020018280546107cb906127c7565b80156108185780601f106107ed57610100808354040283529160200191610818565b820191906000526020600020905b8154815290600101906020018083116107fb57829003601f168201915b50505050508152602001600382018054610831906127c7565b80601f016020809104026020016040519081016040528092919081815260200182805461085d906127c7565b80156108aa5780601f1061087f576101008083540402835291602001916108aa565b820191906000526020600020905b81548152906001019060200180831161088d57829003601f168201915b505050505081526020016004820160009054906101000a900460ff16151515158152505090508060000151816020015182604001518360600151945094509450945050610be3565b600160009054906101000a900473ffffffffffffffffffffffffffffffffffffffff1673ffffffffffffffffffffffffffffffffffffffff163373ffffffffffffffffffffffffffffffffffffffff1603610ba8576000600260008773ffffffffffffffffffffffffffffffffffffffff1673ffffffffffffffffffffffffffffffffffffffff1681526020019081526020016000206040518060a00160405290816000820180546109a3906127c7565b80601f01602080910402602001604051908101604052809291908181526020018280546109cf906127c7565b8015610a1c5780601f106109f157610100808354040283529160200191610a1c565b820191906000526020600020905b8154815290600101906020018083116109ff57829003601f168201915b5050505050815260200160018201548152602001600282018054610a3f906127c7565b80601f0160208091040260200160405190810160405280929190818152602001828054610a6b906127c7565b8015610ab85780601f10610a8d57610100808354040283529160200191610ab8565b820191906000526020600020905b815481529060010190602001808311610a9b57829003601f168201915b50505050508152602001600382018054610ad1906127c7565b80601f0160208091040260200160405190810160405280929190818152602001828054610afd906127c7565b8015610b4a5780601f10610b1f57610100808354040283529160200191610b4a565b820191906000526020600020905b815481529060010190602001808311610b2d57829003601f168201915b505050505081526020016004820160009054906101000a900460ff1615151515815250509050806000015181602001516040518060200160405280600081525060405180602001604052806000815250945094509450945050610be3565b6040517f08c379a0000000000000000000000000000000000000000000000000000000008152600401610bda90612844565b60405180910390fd5b9193509193565b6002602052806000526040600020600091509050806000018054610c0d906127c7565b80601f0160208091040260200160405190810160405280929190818152602001828054610c39906127c7565b8015610c865780601f10610c5b57610100808354040283529160200191610c86565b820191906000526020600020905b815481529060010190602001808311610c6957829003601f168201915b505050505090806001015490806002018054610ca1906127c7565b80601f0160208091040260200160405190810160405280929190818152602001828054610ccd906127c7565b8015610d1a5780601f10610cef57610100808354040283529160200191610d1a565b820191906000526020600020905b815481529060010190602001808311610cfd57829003601f168201915b505050505090806003018054610d2f906127c7565b80601f0160208091040260200160405190810160405280929190818152602001828054610d5b906127c7565b8015610da85780601f10610d7d57610100808354040283529160200191610da8565b820191906000526020600020905b815481529060010190602001808311610d8b57829003601f168201915b5050505050908060040160009054906101000a900460ff16905085565b60008054906101000a900473ffffffffffffffffffffffffffffffffffffffff1681565b6000600260008373ffffffffffffffffffffffffffffffffffffffff1673ffffffffffffffffffffffffffffffffffffffff16815260200190815260200160002060040160009054906101000a900460ff169050919050565b600260003373ffffffffffffffffffffffffffffffffffffffff1673ffffffffffffffffffffffffffffffffffffffff16815260200190815260200160002060040160009054906101000a900460ff16610ed1576040517f08c379a0000000000000000000000000000000000000000000000000000000008152600401610ec89061270c565b60405180910390fd5b6000600360003373ffffffffffffffffffffffffffffffffffffffff1673ffffffffffffffffffffffffffffffffffffffff16815260200190815260200160002060010160008373ffffffffffffffffffffffffffffffffffffffff1673ffffffffffffffffffffffffffffffffffffffff16815260200190815260200160002060006101000a81548160ff0219169083151502179055508073ffffffffffffffffffffffffffffffffffffffff163373ffffffffffffffffffffffffffffffffffffffff167f825c8be24eb0df19500f63e86c29e7d0d951e73056b889b891d85e40938d9b6e60405160405180910390a350565b6000600360008473ffffffffffffffffffffffffffffffffffffffff1673ffffffffffffffffffffffffffffffffffffffff16815260200190815260200160002060010160008373ffffffffffffffffffffffffffffffffffffffff1673ffffffffffffffffffffffffffffffffffffffff16815260200190815260200160002060009054906101000a900460ff16806110ab575060008054906101000a900473ffffffffffffffffffffffffffffffffffffffff1673ffffffffffffffffffffffffffffffffffffffff168273ffffffffffffffffffffffffffffffffffffffff16145b806111035750600160009054906101000a900473ffffffffffffffffffffffffffffffffffffffff1673ffffffffffffffffffffffffffffffffffffffff168273ffffffffffffffffffffffffffffffffffffffff16145b905092915050565b6000600360008373ffffffffffffffffffffffffffffffffffffffff1673ffffffffffffffffffffffffffffffffffffffff168152602001908152602001600020600001805490509050919050565b6000600160009054906101000a900473ffffffffffffffffffffffffffffffffffffffff1673ffffffffffffffffffffffffffffffffffffffff163373ffffffffffffffffffffffffffffffffffffffff161480611203575060008054906101000a900473ffffffffffffffffffffffffffffffffffffffff1673ffffffffffffffffffffffffffffffffffffffff163373ffffffffffffffffffffffffffffffffffffffff16145b8061123957508173ffffffffffffffffffffffffffffffffffffffff163373ffffffffffffffffffffffffffffffffffffffff16145b611278576040517f08c379a000000000000000000000000000000000000000000000000000000000815260040161126f90612844565b60405180910390fd5b6000805b600360008573ffffffffffffffffffffffffffffffffffffffff1673ffffffffffffffffffffffffffffffffffffffff1681526020019081526020016000206000018054905081101561136357600360008573ffffffffffffffffffffffffffffffffffffffff1673ffffffffffffffffffffffffffffffffffffffff168152602001908152602001600020600001818154811061131d5761131c612864565b5b906000526020600020906005020160040160009054906101000a900460ff161561135057818061134c906128c2565b9250505b808061135b906128c2565b91505061127c565b5080915050919050565b6004818154811061137d57600080fd5b906000526020600020016000915054906101000a900473ffffffffffffffffffffffffffffffffffffffff1681565b60008054906101000a900473ffffffffffffffffffffffffffffffffffffffff1673ffffffffffffffffffffffffffffffffffffffff163373ffffffffffffffffffffffffffffffffffffffff161461143a576040517f08c379a00000000000000000000000000000000000000000000000000000000081526004016114319061297c565b60405180910390fd5b600260008673ffffffffffffffffffffffffffffffffffffffff1673ffffffffffffffffffffffffffffffffffffffff16815260200190815260200160002060040160009054906101000a900460ff16156114ca576040517f08c379a00000000000000000000000000000000000000000000000000000000081526004016114c1906129e8565b60405180910390fd5b6040518060a0016040528085815260200184815260200183815260200182815260200160011515815250600260008773ffffffffffffffffffffffffffffffffffffffff1673ffffffffffffffffffffffffffffffffffffffff16815260200190815260200160002060008201518160000190816115489190612bb4565b506020820151816001015560408201518160020190816115689190612bb4565b50606082015181600301908161157e9190612bb4565b5060808201518160040160006101000a81548160ff0219169083151502179055509050506004859080600181540180825580915050600190039060005260206000200160009091909190916101000a81548173ffffffffffffffffffffffffffffffffffffffff021916908373ffffffffffffffffffffffffffffffffffffffff1602179055508473ffffffffffffffffffffffffffffffffffffffff167f096f893428730b9f440cde9930f6fbd450ce2d7ac1f2895f0d869da7376a36d1858560405161164d929190612c86565b60405180910390a25050505050565b606060006060600080600360008873ffffffffffffffffffffffffffffffffffffffff1673ffffffffffffffffffffffffffffffffffffffff1681526020019081526020016000206000018054905086106116ec576040517f08c379a00000000000000000000000000000000000000000000000000000000081526004016116e390612d02565b60405180910390fd5b6000600360008973ffffffffffffffffffffffffffffffffffffffff1673ffffffffffffffffffffffffffffffffffffffff168152602001908152602001600020600001878154811061174257611741612864565b5b90600052602060002090600502016040518060a001604052908160008201805461176b906127c7565b80601f0160208091040260200160405190810160405280929190818152602001828054611797906127c7565b80156117e45780601f106117b9576101008083540402835291602001916117e4565b820191906000526020600020905b8154815290600101906020018083116117c757829003601f168201915b505050505081526020016001820160009054906101000a900460ff16600481111561181257611811612538565b5b600481111561182457611823612538565b5b8152602001600282018054611838906127c7565b80601f0160208091040260200160405190810160405280929190818152602001828054611864906127c7565b80156118b15780601f10611886576101008083540402835291602001916118b1565b820191906000526020600020905b81548152906001019060200180831161189457829003601f168201915b50505050508152602001600382015481526020016004820160009054906101000a900460ff16151515158152505090508773ffffffffffffffffffffffffffffffffffffffff163373ffffffffffffffffffffffffffffffffffffffff160361193d57806000015181602001518260400151836060015184608001519550955095509550955050611c4e565b60008054906101000a900473ffffffffffffffffffffffffffffffffffffffff1673ffffffffffffffffffffffffffffffffffffffff163373ffffffffffffffffffffffffffffffffffffffff1603611a8557600360008973ffffffffffffffffffffffffffffffffffffffff1673ffffffffffffffffffffffffffffffffffffffff16815260200190815260200160002060010160003373ffffffffffffffffffffffffffffffffffffffff1673ffffffffffffffffffffffffffffffffffffffff16815260200190815260200160002060009054906101000a900460ff16611a5c576040517f08c379a0000000000000000000000000000000000000000000000000000000008152600401611a5390612d6e565b60405180910390fd5b806000015181602001518260400151836060015184608001519550955095509550955050611c4e565b600160009054906101000a900473ffffffffffffffffffffffffffffffffffffffff1673ffffffffffffffffffffffffffffffffffffffff163373ffffffffffffffffffffffffffffffffffffffff1603611c1357600360008973ffffffffffffffffffffffffffffffffffffffff1673ffffffffffffffffffffffffffffffffffffffff16815260200190815260200160002060010160003373ffffffffffffffffffffffffffffffffffffffff1673ffffffffffffffffffffffffffffffffffffffff16815260200190815260200160002060009054906101000a900460ff16611ba6576040517f08c379a0000000000000000000000000000000000000000000000000000000008152600401611b9d90612d6e565b60405180910390fd5b8060800151611bea576040517f08c379a0000000000000000000000000000000000000000000000000000000008152600401611be190612e00565b60405180910390fd5b806000015181602001518260400151836060015184608001519550955095509550955050611c4e565b6040517f08c379a0000000000000000000000000000000000000000000000000000000008152600401611c4590612844565b60405180910390fd5b9295509295909350565b600260003373ffffffffffffffffffffffffffffffffffffffff1673ffffffffffffffffffffffffffffffffffffffff16815260200190815260200160002060040160009054906101000a900460ff16611ce7576040517f08c379a0000000000000000000000000000000000000000000000000000000008152600401611cde9061270c565b60405180910390fd5b600060016004811115611cfd57611cfc612538565b5b836004811115611d1057611d0f612538565b5b1480611d40575060036004811115611d2b57611d2a612538565b5b836004811115611d3e57611d3d612538565b5b145b80611d6e5750600480811115611d5957611d58612538565b5b836004811115611d6c57611d6b612538565b5b145b9050600360003373ffffffffffffffffffffffffffffffffffffffff1673ffffffffffffffffffffffffffffffffffffffff1681526020019081526020016000206000016040518060a00160405280868152602001856004811115611dd657611dd5612538565b5b815260200184815260200142815260200183151581525090806001815401808255809150506001900390600052602060002090600502016000909190919091506000820151816000019081611e2b9190612bb4565b5060208201518160010160006101000a81548160ff02191690836004811115611e5757611e56612538565b5b02179055506040820151816002019081611e719190612bb4565b506060820151816003015560808201518160040160006101000a81548160ff02191690831515021790555050503373ffffffffffffffffffffffffffffffffffffffff167fe7ec504c748041a9f386a0082a1307ead7db42301dd42f9632024acf3c28e4ca858585604051611ee893929190612e20565b60405180910390a250505050565b600081519050919050565b600082825260208201905092915050565b6000819050602082019050919050565b600073ffffffffffffffffffffffffffffffffffffffff82169050919050565b6000611f4d82611f22565b9050919050565b611f5d81611f42565b82525050565b6000611f6f8383611f54565b60208301905092915050565b6000602082019050919050565b6000611f9382611ef6565b611f9d8185611f01565b9350611fa883611f12565b8060005b83811015611fd9578151611fc08882611f63565b9750611fcb83611f7b565b925050600181019050611fac565b5085935050505092915050565b600060208201905081810360008301526120008184611f88565b905092915050565b6000604051905090565b600080fd5b600080fd5b61202581611f42565b811461203057600080fd5b50565b6000813590506120428161201c565b92915050565b60006020828403121561205e5761205d612012565b5b600061206c84828501612033565b91505092915050565b61207e81611f42565b82525050565b60006020820190506120996000830184612075565b92915050565b600081519050919050565b600082825260208201905092915050565b60005b838110156120d95780820151818401526020810190506120be565b60008484015250505050565b6000601f19601f8301169050919050565b60006121018261209f565b61210b81856120aa565b935061211b8185602086016120bb565b612124816120e5565b840191505092915050565b6000819050919050565b6121428161212f565b82525050565b6000608082019050818103600083015261216281876120f6565b90506121716020830186612139565b818103604083015261218381856120f6565b9050818103606083015261219781846120f6565b905095945050505050565b60008115159050919050565b6121b7816121a2565b82525050565b600060a08201905081810360008301526121d781886120f6565b90506121e66020830187612139565b81810360408301526121f881866120f6565b9050818103606083015261220c81856120f6565b905061221b60808301846121ae565b9695505050505050565b600060208201905061223a60008301846121ae565b92915050565b6000806040838503121561225757612256612012565b5b600061226585828601612033565b925050602061227685828601612033565b9150509250929050565b60006020820190506122956000830184612139565b92915050565b6122a48161212f565b81146122af57600080fd5b50565b6000813590506122c18161229b565b92915050565b6000602082840312156122dd576122dc612012565b5b60006122eb848285016122b2565b91505092915050565b600080fd5b600080fd5b7f4e487b7100000000000000000000000000000000000000000000000000000000600052604160045260246000fd5b612336826120e5565b810181811067ffffffffffffffff82111715612355576123546122fe565b5b80604052505050565b6000612368612008565b9050612374828261232d565b919050565b600067ffffffffffffffff821115612394576123936122fe565b5b61239d826120e5565b9050602081019050919050565b82818337600083830152505050565b60006123cc6123c784612379565b61235e565b9050828152602081018484840111156123e8576123e76122f9565b5b6123f38482856123aa565b509392505050565b600082601f8301126124105761240f6122f4565b5b81356124208482602086016123b9565b91505092915050565b600080600080600060a0868803121561244557612444612012565b5b600061245388828901612033565b955050602086013567ffffffffffffffff81111561247457612473612017565b5b612480888289016123fb565b9450506040612491888289016122b2565b935050606086013567ffffffffffffffff8111156124b2576124b1612017565b5b6124be888289016123fb565b925050608086013567ffffffffffffffff8111156124df576124de612017565b5b6124eb888289016123fb565b9150509295509295909350565b6000806040838503121561250f5761250e612012565b5b600061251d85828601612033565b925050602061252e858286016122b2565b9150509250929050565b7f4e487b7100000000000000000000000000000000000000000000000000000000600052602160045260246000fd5b6005811061257857612577612538565b5b50565b600081905061258982612567565b919050565b60006125998261257b565b9050919050565b6125a98161258e565b82525050565b600060a08201905081810360008301526125c981886120f6565b90506125d860208301876125a0565b81810360408301526125ea81866120f6565b90506125f96060830185612139565b61260660808301846121ae565b9695505050505050565b6005811061261d57600080fd5b50565b60008135905061262f81612610565b92915050565b60008060006060848603121561264e5761264d612012565b5b600084013567ffffffffffffffff81111561266c5761266b612017565b5b612678868287016123fb565b935050602061268986828701612620565b925050604084013567ffffffffffffffff8111156126aa576126a9612017565b5b6126b6868287016123fb565b9150509250925092565b7f4f6e6c7920726567697374657265642070617469656e74730000000000000000600082015250565b60006126f66018836120aa565b9150612701826126c0565b602082019050919050565b60006020820190508181036000830152612725816126e9565b9050919050565b7f50617469656e74206e6f74207265676973746572656400000000000000000000600082015250565b60006127626016836120aa565b915061276d8261272c565b602082019050919050565b6000602082019050818103600083015261279181612755565b9050919050565b7f4e487b7100000000000000000000000000000000000000000000000000000000600052602260045260246000fd5b600060028204905060018216806127df57607f821691505b6020821081036127f2576127f1612798565b5b50919050565b7f4163636573732064656e69656400000000000000000000000000000000000000600082015250565b600061282e600d836120aa565b9150612839826127f8565b602082019050919050565b6000602082019050818103600083015261285d81612821565b9050919050565b7f4e487b7100000000000000000000000000000000000000000000000000000000600052603260045260246000fd5b7f4e487b7100000000000000000000000000000000000000000000000000000000600052601160045260246000fd5b60006128cd8261212f565b91507fffffffffffffffffffffffffffffffffffffffffffffffffffffffffffffffff82036128ff576128fe612893565b5b600182019050919050565b7f4f6e6c7920646f63746f722063616e20706572666f726d20746869732061637460008201527f696f6e0000000000000000000000000000000000000000000000000000000000602082015250565b60006129666023836120aa565b91506129718261290a565b604082019050919050565b6000602082019050818103600083015261299581612959565b9050919050565b7f50617469656e7420616c72656164792072656769737465726564000000000000600082015250565b60006129d2601a836120aa565b91506129dd8261299c565b602082019050919050565b60006020820190508181036000830152612a01816129c5565b9050919050565b60008190508160005260206000209050919050565b60006020601f8301049050919050565b600082821b905092915050565b600060088302612a6a7fffffffffffffffffffffffffffffffffffffffffffffffffffffffffffffffff82612a2d565b612a748683612a2d565b95508019841693508086168417925050509392505050565b6000819050919050565b6000612ab1612aac612aa78461212f565b612a8c565b61212f565b9050919050565b6000819050919050565b612acb83612a96565b612adf612ad782612ab8565b848454612a3a565b825550505050565b600090565b612af4612ae7565b612aff818484612ac2565b505050565b5b81811015612b2357612b18600082612aec565b600181019050612b05565b5050565b601f821115612b6857612b3981612a08565b612b4284612a1d565b81016020851015612b51578190505b612b65612b5d85612a1d565b830182612b04565b50505b505050565b600082821c905092915050565b6000612b8b60001984600802612b6d565b1980831691505092915050565b6000612ba48383612b7a565b9150826002028217905092915050565b612bbd8261209f565b67ffffffffffffffff811115612bd657612bd56122fe565b5b612be082546127c7565b612beb828285612b27565b600060209050601f831160018114612c1e5760008415612c0c578287015190505b612c168582612b98565b865550612c7e565b601f198416612c2c86612a08565b60005b82811015612c5457848901518255600182019150602085019450602081019050612c2f565b86831015612c715784890151612c6d601f891682612b7a565b8355505b6001600288020188555050505b505050505050565b60006040820190508181036000830152612ca081856120f6565b9050612caf6020830184612139565b9392505050565b7f496e646578206f7574206f6620626f756e647300000000000000000000000000600082015250565b6000612cec6013836120aa565b9150612cf782612cb6565b602082019050919050565b60006020820190508181036000830152612d1b81612cdf565b9050919050565b7f416363657373206e6f74206772616e7465642062792070617469656e74000000600082015250565b6000612d58601d836120aa565b9150612d6382612d22565b602082019050919050565b60006020820190508181036000830152612d8781612d4b565b9050919050565b7f52657365617263686572732063616e206f6e6c7920616363657373206469616760008201527f6e6f736973206461746100000000000000000000000000000000000000000000602082015250565b6000612dea602a836120aa565b9150612df582612d8e565b604082019050919050565b60006020820190508181036000830152612e1981612ddd565b9050919050565b60006060820190508181036000830152612e3a81866120f6565b9050612e4960208301856125a0565b8181036040830152612e5b81846120f6565b905094935050505056fea26469706673582212208a8dea5718412816a024c0c9667cc69d6d90064fe64ca9d6b915e6a75052a6f064736f6c63430008130033",
  "linkReferences": {},
  "deployedLinkReferences": {}
}